{
  "contractName": "LegalEVault",
  "abi": [
    {
      "anonymous": false,
      "inputs": [
        {
          "indexed": true,
          "internalType": "string",
          "name": "cid",
          "type": "string"
        },
        {
          "indexed": true,
          "internalType": "address",
          "name": "requester",
          "type": "address"
        }
      ],
      "name": "DocumentRetrieved",
      "type": "event"
    },
    {
      "anonymous": false,
      "inputs": [
        {
          "indexed": true,
          "internalType": "string",
          "name": "cid",
          "type": "string"
        },
        {
          "indexed": true,
          "internalType": "address",
          "name": "owner",
          "type": "address"
        },
        {
          "indexed": true,
          "internalType": "address",
          "name": "sharedWith",
          "type": "address"
        }
      ],
      "name": "DocumentShared",
      "type": "event"
    },
    {
      "anonymous": false,
      "inputs": [
        {
          "indexed": true,
          "internalType": "string",
          "name": "cid",
          "type": "string"
        },
        {
          "indexed": false,
          "internalType": "string",
          "name": "link",
          "type": "string"
        },
        {
          "indexed": true,
          "internalType": "address",
          "name": "owner",
          "type": "address"
        }
      ],
      "name": "DocumentUploaded",
      "type": "event"
    },
    {
      "inputs": [
        {
          "internalType": "string",
          "name": "cid",
          "type": "string"
        },
        {
          "internalType": "string",
          "name": "link",
          "type": "string"
        }
      ],
      "name": "uploadDocument",
      "outputs": [],
      "stateMutability": "nonpayable",
      "type": "function"
    },
    {
      "inputs": [
        {
          "internalType": "string",
          "name": "cid",
          "type": "string"
        },
        {
          "internalType": "address",
          "name": "user",
          "type": "address"
        }
      ],
      "name": "shareDocument",
      "outputs": [],
      "stateMutability": "nonpayable",
      "type": "function"
    },
    {
      "inputs": [
        {
          "internalType": "string",
          "name": "cid",
          "type": "string"
        }
      ],
      "name": "retrieveDocument",
      "outputs": [],
      "stateMutability": "nonpayable",
      "type": "function"
    },
    {
      "inputs": [
        {
          "internalType": "string",
          "name": "cid",
          "type": "string"
        },
        {
          "internalType": "address",
          "name": "user",
          "type": "address"
        }
      ],
      "name": "hasAccess",
      "outputs": [
        {
          "internalType": "bool",
          "name": "",
          "type": "bool"
        }
      ],
      "stateMutability": "view",
      "type": "function",
      "constant": true
    },
    {
      "inputs": [
        {
          "internalType": "string",
          "name": "cid",
          "type": "string"
        }
      ],
      "name": "getDocumentOwner",
      "outputs": [
        {
          "internalType": "address",
          "name": "",
          "type": "address"
        }
      ],
      "stateMutability": "view",
      "type": "function",
      "constant": true
    },
    {
      "inputs": [
        {
          "internalType": "string",
          "name": "cid",
          "type": "string"
        }
      ],
      "name": "getDocumentLink",
      "outputs": [
        {
          "internalType": "string",
          "name": "",
          "type": "string"
        }
      ],
      "stateMutability": "view",
      "type": "function",
      "constant": true
    }
  ],
  "bytecode": "0x608060405234801561001057600080fd5b50611166806100206000396000f3fe608060405234801561001057600080fd5b50600436106100625760003560e01c806303bed9051461006757806313bd20e2146100835780634464fe33146100b35780635aa338f4146100cf578063cb356d91146100eb578063fe262db41461011b575b600080fd5b610081600480360381019061007c9190610a93565b61014b565b005b61009d60048036038101906100989190610a93565b610357565b6040516100aa9190610b0a565b60405180910390f35b6100cd60048036038101906100c89190610b25565b6104b4565b005b6100e960048036038101906100e49190610b9d565b610631565b005b61010560048036038101906101009190610b9d565b6106fd565b6040516101129190610bf5565b60405180910390f35b61013560048036038101906101309190610b9d565b6107b8565b6040516101429190610c8f565b60405180910390f35b813373ffffffffffffffffffffffffffffffffffffffff166000826040516101739190610ced565b908152602001604051809103902060020160009054906101000a900473ffffffffffffffffffffffffffffffffffffffff1673ffffffffffffffffffffffffffffffffffffffff16146101fb576040517f08c379a00000000000000000000000000000000000000000000000000000000081526004016101f290610d50565b60405180910390fd5b8260008160405161020c9190610ced565b908152602001604051809103902060020160149054906101000a900460ff1661026a576040517f08c379a000000000000000000000000000000000000000000000000000000000815260040161026190610dbc565b60405180910390fd5b600160008560405161027c9190610ced565b908152602001604051809103902060030160008573ffffffffffffffffffffffffffffffffffffffff1673ffffffffffffffffffffffffffffffffffffffff16815260200190815260200160002060006101000a81548160ff0219169083151502179055508273ffffffffffffffffffffffffffffffffffffffff163373ffffffffffffffffffffffffffffffffffffffff168560405161031d9190610ced565b60405180910390207fff088edf520e0b571a2e69a53d931f77fda80441ff1b79fa8c5fa5f574db04ed60405160405180910390a450505050565b60008260008160405161036a9190610ced565b908152602001604051809103902060020160149054906101000a900460ff166103c8576040517f08c379a00000000000000000000000000000000000000000000000000000000081526004016103bf90610dbc565b60405180910390fd5b8273ffffffffffffffffffffffffffffffffffffffff166000856040516103ef9190610ced565b908152602001604051809103902060020160009054906101000a900473ffffffffffffffffffffffffffffffffffffffff1673ffffffffffffffffffffffffffffffffffffffff1614806104ab575060008460405161044e9190610ced565b908152602001604051809103902060030160008473ffffffffffffffffffffffffffffffffffffffff1673ffffffffffffffffffffffffffffffffffffffff16815260200190815260200160002060009054906101000a900460ff165b91505092915050565b6000826040516104c49190610ced565b908152602001604051809103902060020160149054906101000a900460ff1615610523576040517f08c379a000000000000000000000000000000000000000000000000000000000815260040161051a90610e28565b60405180910390fd5b600080836040516105349190610ced565b9081526020016040518091039020905082816000019081610555919061105e565b5081816001019081610567919061105e565b50338160020160006101000a81548173ffffffffffffffffffffffffffffffffffffffff021916908373ffffffffffffffffffffffffffffffffffffffff16021790555060018160020160146101000a81548160ff0219169083151502179055503373ffffffffffffffffffffffffffffffffffffffff16836040516105ed9190610ced565b60405180910390207f6751413201f489f5923a2415d3218a5bf8a5be5764be64ec5a5c0709863617e1846040516106249190610c8f565b60405180910390a3505050565b806000816040516106429190610ced565b908152602001604051809103902060020160149054906101000a900460ff166106a0576040517f08c379a000000000000000000000000000000000000000000000000000000000815260040161069790610dbc565b60405180910390fd5b3373ffffffffffffffffffffffffffffffffffffffff16826040516106c59190610ced565b60405180910390207f6c145505643a3b8444f0c12ea8df8983e83b32cae97e966a540cdc8bc62966b260405160405180910390a35050565b6000816000816040516107109190610ced565b908152602001604051809103902060020160149054906101000a900460ff1661076e576040517f08c379a000000000000000000000000000000000000000000000000000000000815260040161076590610dbc565b60405180910390fd5b60008360405161077e9190610ced565b908152602001604051809103902060020160009054906101000a900473ffffffffffffffffffffffffffffffffffffffff16915050919050565b6060816000816040516107cb9190610ced565b908152602001604051809103902060020160149054906101000a900460ff16610829576040517f08c379a000000000000000000000000000000000000000000000000000000000815260040161082090610dbc565b60405180910390fd5b6000836040516108399190610ced565b9081526020016040518091039020600101805461085590610e77565b80601f016020809104026020016040519081016040528092919081815260200182805461088190610e77565b80156108ce5780601f106108a3576101008083540402835291602001916108ce565b820191906000526020600020905b8154815290600101906020018083116108b157829003601f168201915b5050505050915050919050565b6000604051905090565b600080fd5b600080fd5b600080fd5b600080fd5b6000601f19601f8301169050919050565b7f4e487b7100000000000000000000000000000000000000000000000000000000600052604160045260246000fd5b610942826108f9565b810181811067ffffffffffffffff821117156109615761096061090a565b5b80604052505050565b60006109746108db565b90506109808282610939565b919050565b600067ffffffffffffffff8211156109a05761099f61090a565b5b6109a9826108f9565b9050602081019050919050565b82818337600083830152505050565b60006109d86109d384610985565b61096a565b9050828152602081018484840111156109f4576109f36108f4565b5b6109ff8482856109b6565b509392505050565b600082601f830112610a1c57610a1b6108ef565b5b8135610a2c8482602086016109c5565b91505092915050565b600073ffffffffffffffffffffffffffffffffffffffff82169050919050565b6000610a6082610a35565b9050919050565b610a7081610a55565b8114610a7b57600080fd5b50565b600081359050610a8d81610a67565b92915050565b60008060408385031215610aaa57610aa96108e5565b5b600083013567ffffffffffffffff811115610ac857610ac76108ea565b5b610ad485828601610a07565b9250506020610ae585828601610a7e565b9150509250929050565b60008115159050919050565b610b0481610aef565b82525050565b6000602082019050610b1f6000830184610afb565b92915050565b60008060408385031215610b3c57610b3b6108e5565b5b600083013567ffffffffffffffff811115610b5a57610b596108ea565b5b610b6685828601610a07565b925050602083013567ffffffffffffffff811115610b8757610b866108ea565b5b610b9385828601610a07565b9150509250929050565b600060208284031215610bb357610bb26108e5565b5b600082013567ffffffffffffffff811115610bd157610bd06108ea565b5b610bdd84828501610a07565b91505092915050565b610bef81610a55565b82525050565b6000602082019050610c0a6000830184610be6565b92915050565b600081519050919050565b600082825260208201905092915050565b60005b83811015610c4a578082015181840152602081019050610c2f565b60008484015250505050565b6000610c6182610c10565b610c6b8185610c1b565b9350610c7b818560208601610c2c565b610c84816108f9565b840191505092915050565b60006020820190508181036000830152610ca98184610c56565b905092915050565b600081905092915050565b6000610cc782610c10565b610cd18185610cb1565b9350610ce1818560208601610c2c565b80840191505092915050565b6000610cf98284610cbc565b915081905092915050565b7f43616c6c6572206973206e6f7420746865206f776e6572000000000000000000600082015250565b6000610d3a601783610c1b565b9150610d4582610d04565b602082019050919050565b60006020820190508181036000830152610d6981610d2d565b9050919050565b7f446f63756d656e7420646f6573206e6f74206578697374000000000000000000600082015250565b6000610da6601783610c1b565b9150610db182610d70565b602082019050919050565b60006020820190508181036000830152610dd581610d99565b9050919050565b7f446f63756d656e7420616c726561647920657869737473000000000000000000600082015250565b6000610e12601783610c1b565b9150610e1d82610ddc565b602082019050919050565b60006020820190508181036000830152610e4181610e05565b9050919050565b7f4e487b7100000000000000000000000000000000000000000000000000000000600052602260045260246000fd5b60006002820490506001821680610e8f57607f821691505b602082108103610ea257610ea1610e48565b5b50919050565b60008190508160005260206000209050919050565b60006020601f8301049050919050565b600082821b905092915050565b600060088302610f0a7fffffffffffffffffffffffffffffffffffffffffffffffffffffffffffffffff82610ecd565b610f148683610ecd565b95508019841693508086168417925050509392505050565b6000819050919050565b6000819050919050565b6000610f5b610f56610f5184610f2c565b610f36565b610f2c565b9050919050565b6000819050919050565b610f7583610f40565b610f89610f8182610f62565b848454610eda565b825550505050565b600090565b610f9e610f91565b610fa9818484610f6c565b505050565b5b81811015610fcd57610fc2600082610f96565b600181019050610faf565b5050565b601f82111561101257610fe381610ea8565b610fec84610ebd565b81016020851015610ffb578190505b61100f61100785610ebd565b830182610fae565b50505b505050565b600082821c905092915050565b600061103560001984600802611017565b1980831691505092915050565b600061104e8383611024565b9150826002028217905092915050565b61106782610c10565b67ffffffffffffffff8111156110805761107f61090a565b5b61108a8254610e77565b611095828285610fd1565b600060209050601f8311600181146110c857600084156110b6578287015190505b6110c08582611042565b865550611128565b601f1984166110d686610ea8565b60005b828110156110fe578489015182556001820191506020850194506020810190506110d9565b8683101561111b5784890151611117601f891682611024565b8355505b6001600288020188555050505b50505050505056fea26469706673582212203704884312fe3ac91ff330c5f96812aef2da72e1e11c8bb47a5c8716ef33c75664736f6c63430008130033",
  "immutableReferences": {},
  "source": "// SPDX-License-Identifier: MIT\npragma solidity ^0.8.19;\n\ncontract LegalEVault {\n    struct Document {\n        string cid;\n        string link;\n        address owner;\n        bool exists;\n        mapping(address => bool) sharedWith;\n    }\n\n    mapping(string => Document) private documents;\n\n    event DocumentUploaded(string indexed cid, string link, address indexed owner);\n    event DocumentShared(string indexed cid, address indexed owner, address indexed sharedWith);\n    event DocumentRetrieved(string indexed cid, address indexed requester);\n\n    modifier onlyOwner(string memory cid) {\n        require(documents[cid].owner == msg.sender, \"Caller is not the owner\");\n        _;\n    }\n\n    modifier documentExists(string memory cid) {\n        require(documents[cid].exists, \"Document does not exist\");\n        _;\n    }\n\n    function uploadDocument(string memory cid, string memory link) public {\n        require(!documents[cid].exists, \"Document already exists\");\n\n        Document storage newDocument = documents[cid];\n        newDocument.cid = cid;\n        newDocument.link = link;\n        newDocument.owner = msg.sender;\n        newDocument.exists = true;\n\n        emit DocumentUploaded(cid, link, msg.sender);\n    }\n\n    function shareDocument(string memory cid, address user) public onlyOwner(cid) documentExists(cid) {\n        documents[cid].sharedWith[user] = true;\n        emit DocumentShared(cid, msg.sender, user);\n    }\n\n    function retrieveDocument(string memory cid) public documentExists(cid) {\n        emit DocumentRetrieved(cid, msg.sender);\n    }\n\n    function hasAccess(string memory cid, address user) public view documentExists(cid) returns (bool) {\n        return documents[cid].owner == user || documents[cid].sharedWith[user];\n    }\n\n    function getDocumentOwner(string memory cid) public view documentExists(cid) returns (address) {\n        return documents[cid].owner;\n    }\n\n    function getDocumentLink(string memory cid) public view documentExists(cid) returns (string memory) {\n        return documents[cid].link;\n    }\n}\n",
  "sourcePath": "/Users/kavindev/Desktop/SG_HACKATHON2/contracts/uploadDocuments.sol",
  "compiler": {
    "name": "solc",
    "version": "0.8.19+commit.7dd6d404.Emscripten.clang"
  },
  "schemaVersion": "3.4.16",
  "updatedAt": "2024-07-14T05:47:18.801Z",
  "networkType": "ethereum",
  "devdoc": {
    "kind": "dev",
    "methods": {},
    "version": 1
  },
  "userdoc": {
    "kind": "user",
    "methods": {},
    "version": 1
  }
}